:100000000C9434000C9453000C9451000C94510047
:100010000C9451000C9451000C9451000C9451001C
:100020000C9451000C9451000C9451000C9451000C
:100030000C9451000C9451000C9451000C945100FC
:100040000C9451000C9451000C9451000C945100EC
:100050000C9451000C9451000C9451000C945100DC
:100060000C9451000C94510011241FBECFEFD8E026
:10007000DEBFCDBF11E0A0E0B1E0E2E4F1E002C0FC
:1000800005900D92A230B107D9F721E0A2E0B1E0CE
:1000900001C01D92A330B207E1F70E9493000C94B7
:1000A0009F000C9400001F920F920FB60F92112424
:1000B0002F933F938F939F9389B120910201847076
:1000C00090E030E08217930729F12FE78AE196E06C
:1000D000215080409040E1F700C0000089B120919C
:1000E0000201847090E030E08217930799F089B1A3
:1000F00082FB882780F980930201882359F0909130
:10010000000181E0892780930001882311F02D9A56
:1001100001C02D989F918F913F912F910F900FBE0D
:100120000F901F901895259A52985A9AF894E89A29
:10013000809169008160809369007894FFCFF89482
:02014000FFCFEF
:020142000100BA
:00000001FF
