:100000000C9434000C9451000C9451000C94510049
:100010000C9451000C9451000C9451000C9451001C
:100020000C9451000C9451000C9451000C9451000C
:100030000C9451000C9451000C9451000C945100FC
:100040000C9451000C9451000C9451000C944701F5
:100050000C9451000C9451000C9451000C945100DC
:100060000C9451000C94510011241FBECFEFD8E026
:10007000DEBFCDBF11E0A0E0B1E0EEE8F7E002C0E6
:1000800005900D92A231B107D9F723E0A2E1B1E0CA
:1000900001C01D92AA30B207E1F70E94D2010C9470
:1000A000C5030C940000FC0111821082138212829D
:1000B0000895FC014081518122813381C901841B53
:1000C000950B4217530714F08C509E4F0895FC0176
:1000D0004081518122813381CA01821B930B4217D7
:1000E000530714F48C509E4F08950F931F93CF9392
:1000F000DF931F92CDB7DEB78C0169830E94590050
:1001000069811816190694F4F801808191819C0187
:100110002F5F3F4FE80FF91F6483243FF1E03F0753
:1001200014F020E030E0F801318320830F90DF915C
:10013000CF911F910F910895CF93DF93EC010E940F
:100140006700892B99F08A819B819C012F5F3F4F2B
:10015000FE01E80FF91F9481243F81E0380714F075
:1001600020E030E03B832A83892F01C080E0DF91CB
:10017000CF9108950F931F93CF93DF938C01EB01E1
:100180000E945900FE0101900020E9F73197EC1B15
:10019000FD0B8E179F07C0F088818823A9F0F80116
:1001A00020813181C9010196918380834991E20FB9
:1001B000F31F4483843FF1E09F0714F080E090E058
:1001C000F80191838083E8CFDF91CF911F910F9148
:1001D00008950F931F93CF93DF93FB012081222378
:1001E00031F18B01EC010E946700892B01F1CE01F6
:1001F0000E946700892BC9F08A819B819C012F5F37
:100200003F4F3B832A83FE01E80FF91F8481F801E9
:1002100081938F018A819B81843FF1E09F0714F0D5
:1002200080E090E09B838A83E2CF81E001C080E0A0
:10023000DF91CF911F910F9108951092C50087E62D
:100240008093C40088E18093C10086E08093C2005F
:1002500082E191E00E945300789408959091C0004B
:1002600095FFFCCF8093C60008958091C00087FF62
:10027000FCCF8091C6000895BC0182E191E00E940C
:10028000BA00E1ECF0E080818062808308951F92E3
:100290000F920FB60F9211242F933F934F935F93BA
:1002A0006F937F938F939F93AF93BF93EF93FF933E
:1002B00082E191E00E946700181619063CF482E181
:1002C00091E00E949C008093C60005C08091C1000F
:1002D0008F7D8093C100FF91EF91BF91AF919F916E
:1002E0008F917F916F915F914F913F912F910F90DF
:1002F0000FBE0F901F90189580917A0080648093B4
:100300007A0080917A0086FDFCCF089588EC809376
:100310007C0086E880937A000C947C010E947C012A
:10032000609178007091790080E090E00E9437033E
:100330002EEA37E242EA53E40E94220226EF38E234
:100340004CE95FE30E948F020E940103CB010895F4
:10035000EF92FF920F931F93CF93DF93EC018AE00C
:10036000E82EF12CD7FF07C08DE20E942E01D19517
:10037000C195D109F7CFCA30D10554F0CE01B701EC
:100380000E94FA018C01CB010E94A801E801EACF8A
:100390008C2F805DDF91CF911F910F91FF90EF9097
:1003A0000C942E01CF93DF93CDB7DEB762970FB6D3
:1003B000F894DEBF0FBECDBF0E941D010E948601D2
:1003C00082E1E0E0F1E0DE01119601900D928A9564
:1003D000E1F780E090E00E948E010E94A8018E016A
:1003E0000F5F1F4FF80181918F01882391F30E94C5
:1003F0002E01F8CF97FB072E16F4009407D077FD57
:1004000009D00E940E0207FC05D03EF4909581951C
:100410009F4F0895709561957F4F0895AA1BBB1B50
:1004200051E107C0AA1FBB1FA617B70710F0A61BF4
:10043000B70B881F991F5A95A9F780959095BC0115
:10044000CD0108955058BB27AA270E943A020C9468
:100450008B030E947D0338F00E94840320F039F45E
:100460009F3F19F426F40C947A030EF4E095E7FB11
:100470000C947403E92F0E949C0358F3BA17620787
:1004800073078407950720F079F4A6F50C94BE0352
:100490000EF4E0950B2EBA2FA02D0B01B90190019F
:1004A0000C01CA01A0011124FF27591B99F0593FE3
:1004B00050F4503E68F11A16F040A22F232F342F2B
:1004C0004427585FF3CF469537952795A795F04079
:1004D0005395C9F77EF41F16BA0B620B730B840B8E
:1004E000BAF09150A1F0FF0FBB1F661F771F881F46
:1004F000C2F70EC0BA0F621F731F841F48F487959E
:1005000077956795B795F7959E3F08F0B0CF93958F
:10051000880F08F09927EE0F9795879508950E9408
:10052000A3020C948B030E94840358F00E947D0365
:1005300040F029F45F3F29F00C94740351110C949E
:10054000BF030C947A030E949C0368F39923B1F3D0
:10055000552391F3951B550BBB27AA2762177307E9
:10056000840738F09F5F5F4F220F331F441FAA1F7D
:10057000A9F335D00E2E3AF0E0E832D09150504039
:10058000E695001CCAF72BD0FE2F29D0660F771FE7
:10059000881FBB1F261737074807AB07B0E809F0CD
:1005A000BB0B802DBF01FF2793585F4F3AF09E3F52
:1005B000510578F00C9474030C94BF035F3FE4F38F
:1005C000983ED4F3869577956795B795F7959F5F95
:1005D000C9F7880F911D9695879597F90895E1E0E1
:1005E000660F771F881FBB1F621773078407BA0740
:1005F00020F0621B730B840BBA0BEE1F88F7E0959B
:1006000008950E9408036894B1110C94BF030895E3
:100610000E94A40388F09F5798F0B92F9927B751EB
:10062000B0F0E1F0660F771F881F991F1AF0BA9596
:10063000C9F714C0B13091F00E94BE03B1E0089533
:100640000C94BE03672F782F8827B85F39F0B93F25
:10065000CCF3869577956795B395D9F73EF4909549
:100660008095709561957F4F8F4F9F4F0895E894C7
:1006700009C097FB3EF490958095709561957F4FEA
:100680008F4F9F4F9923A9F0F92F96E9BB27939598
:10069000F695879577956795B795F111F8CFFAF4A8
:1006A000BB0F11F460FF1BC06F5F7F4F8F4F9F4FD9
:1006B00016C0882311F096E911C0772321F09EE837
:1006C000872F762F05C0662371F096E8862F70E09D
:1006D00060E02AF09A95660F771F881FDAF7880F77
:1006E0009695879597F9089597F99F6780E870E048
:1006F00060E008959FEF80EC089500240A94161698
:10070000170618060906089500240A9412161306FF
:10071000140605060895092E0394000C11F488238D
:1007200052F0BB0F40F4BF2B11F460FF04C06F5FA9
:100730007F4F8F4F9F4F089557FD9058440F551F7F
:1007400059F05F3F71F04795880F97FB991F61F053
:100750009F3F79F087950895121613061406551FCA
:10076000F2CF4695F1DF08C0161617061806991F36
:10077000F1CF86957105610508940895E894BB272B
:0E07800066277727CB0197F90895F894FFCFED
:10078E00646567726565732043656C736975730D77
:02079E000A004F
:00000001FF
