:100000000C9434000C9451000C9451000C94510049
:100010000C9451000C9451000C9451000C9451001C
:100020000C9451000C9451000C9451000C9451000C
:100030000C9451000C9451000C9451000C945100FC
:100040000C9454000C9451000C9451000C945100E9
:100050000C9451000C9451000C9451000C945100DC
:100060000C9451000C94510011241FBECFEFD8E026
:10007000DEBFCDBF11E0A0E0B1E0EAE6F1E002C0F2
:1000800005900D92A230B107D9F721E0A2E0B1E0CE
:1000900001C01D92A630B207E1F70E9499000C94AE
:1000A000B3000C940000FFCF1F920F920FB60F9277
:1000B00011242F933F938F939F93809102019091EE
:1000C00003019C012F5F3F4F3093030120930201F6
:1000D0000A9731F580910401909105019093890070
:1000E00080938800209100013091010180910401EA
:1000F00090910501820F931F909305018093040155
:10010000009719F08F3F910539F431952195310908
:10011000309301012093000110920301109202011B
:100120009F918F913F912F910F900FBE0F901F9035
:100130001895E0E8F0E0808181688083E1E8F0E0F4
:1001400080818960808314BC15BC81E080936E003F
:1001500085B5836085BD7894219A80910001909146
:0A01600001010E945300F894FFCF44
:02016A00010092
:00000001FF
