:100000000C9434000C9451000C9451000C94510049
:100010000C9451000C9451000C9451000C9451001C
:100020000C9451000C9451000C9451000C9451000C
:100030000C9451000C9451000C9451000C945100FC
:100040000C9451000C9451000C9451000C945100EC
:100050000C9451000C9451000C9451000C945100DC
:100060000C9451000C94510011241FBECFEFD8E026
:10007000DEBFCDBF11E0A0E0B1E0EAEFF7E002C0E3
:1000800005900D92A231B107D9F721E0A2E1B1E0CC
:1000900001C01D92A831B207E1F70E9486000C94BE
:1000A000FB030C940000CF93C82F8A3019F48DE025
:1000B0000E9453008091C00085FFFCCFC093C60012
:1000C000CF9108958091C00087FFFCCF8091C6003A
:1000D0000895C0E0D1E080911201909113010E9437
:1000E000C20099279F938F93DF93CF930E940001C3
:1000F0009FEF27EA81E6915020408040E1F700C061
:1001000000000F900F900F900F90E5CFCF93DF93EB
:10011000CDB7DEB76C970FB6F894DEBF0FBECDBF7C
:100120002EE0CE010F96FC01322F11923A95E9F79D
:1001300032E03A8B43E550E0588F4F8BDE01119649
:10014000FD0111922A95E9F721E02C8322E630E0A7
:100150003C872B87E2E1F1E093838283B183A08324
:100160001092C50087E68093C40088E18093C100A7
:1001700086E08093C2008CE091E00E94160180E04E
:100180000E946900CF93DF93EC012B8120FF33C0E5
:1001900026FF0AC02F7B2B838E819F8101969F8330
:1001A0008E838A8190E029C022FF0FC0E881F98107
:1001B0008081082E000C990B009719F420622B8384
:1001C0001AC03196F983E8830EC0EA85FB8509954C
:1001D00097FF09C02B81019611F080E201C080E1F8
:1001E000822B8B8308C02E813F812F5F3F4F3F833F
:1001F0002E83992702C08FEF9FEFDF91CF91089553
:10020000A0E0B0E0E6E0F1E00C94D403AE014B5F77
:100210005F4FFA0161917191AF018091140190914A
:1002200015010E944601E2E00C94F0030F931F9326
:10023000CF93DF93E0911401F0911501238121FF09
:100240001BC08C01D0E0C0E0F80181918F0160916A
:10025000140170911501DB011896ED91FC9119972D
:10026000882331F00995892B79F3DFEFCFEFECCFBD
:100270008AE00995892B19F08FEF9FEF02C08D2F2F
:100280009C2FDF91CF911F910F910895ACE0B0E0CA
:10029000ECE4F1E00C94C4037C016B018A01FC01E5
:1002A00017821682838181FFBDC1CE0101964C0168
:1002B000F7019381F60193FD859193FF81916F0181
:1002C000882309F4ABC1853239F493FD859193FFFE
:1002D00081916F01853229F4B70190E00E942E03CD
:1002E000E7CF512C312C20E02032A0F48B3269F082
:1002F00030F4803259F0833269F420612CC08D32A1
:1003000039F0803339F4216026C02260246023C094
:10031000286021C027FD27C030ED380F3A3078F42F
:1003200026FF06C0FAE05F9E300D1124532E13C045
:100330008AE0389E300D1124332E20620CC08E329C
:1003400021F426FD6BC1206406C08C3611F42068B0
:1003500002C0883641F4F60193FD859193FF8191A7
:100360006F018111C1CF982F9F7D9554933028F450
:100370000C5F1F4FFFE3F9830DC0833631F08337E5
:1003800071F0833509F05BC022C0F8018081898358
:100390000E5F1F4F44244394512C540115C0380163
:1003A000F2E06F0E711CF801A080B18026FF03C03F
:1003B000652D70E002C06FEF7FEFC5012C870E94B2
:1003C00023032C0183012C852F77222E17C038019F
:1003D000F2E06F0E711CF801A080B18026FF03C00F
:1003E000652D70E002C06FEF7FEFC5012C870E9482
:1003F00018032C012C852068222E830123FC1BC0AE
:10040000832D90E048165906B0F4B70180E290E0E1
:100410000E942E033A94F4CFF50127FC859127FE24
:1004200081915F01B70190E00E942E0331103A9450
:10043000F1E04F1A51084114510471F7E5C08436B8
:1004400011F0893639F5F80127FF07C06081718105
:10045000828193810C5F1F4F08C060817181072EDC
:10046000000C880B990B0E5F1F4F2F76722E97FF93
:1004700009C090958095709561957F4F8F4F9F4FE4
:100480002068722E2AE030E0A4010E946603A82EA4
:10049000A81844C0853729F42F7EB22E2AE030E018
:1004A00025C0F22FF97FBF2E8F36C1F018F48835A2
:1004B00079F0B4C0803719F0883721F0AFC02F2F02
:1004C0002061B22EB4FE0DC08B2D8460B82E09C001
:1004D00024FF0AC09F2F9660B92E06C028E030E0A6
:1004E00005C020E130E002C020E132E0F801B7FEB3
:1004F00007C060817181828193810C5F1F4F06C0AC
:100500006081718180E090E00E5F1F4FA4010E9426
:100510006603A82EA818FB2DFF777F2E76FE0BC052
:10052000372D3E7FA51450F474FE0AC072FC08C03B
:10053000372D3E7E05C0BA2C372D03C0BA2C01C022
:10054000B52C34FF0DC0FE01EA0DF11D8081803312
:1005500011F4397E09C032FF06C0B394B39404C0CD
:10056000832F867809F0B39433FD13C030FF06C0A3
:100570005A2CB31418F4530C5B18B32CB31468F44E
:10058000B70180E290E03C870E942E03B3943C8543
:10059000F5CFB31410F43B1801C0312C34FF12C056
:1005A000B70180E390E03C870E942E033C8532FF38
:1005B00017C031FD03C088E790E002C088E590E0F5
:1005C000B7010CC0832F867859F031FF02C08BE24F
:1005D00001C080E237FD8DE2B70190E00E942E035A
:1005E000A51438F4B70180E390E00E942E035A94DA
:1005F000F7CFAA94F401EA0DF11D8081B70190E0D4
:100600000E942E03A110F5CF332009F451CEB7017B
:1006100080E290E00E942E033A94F6CFF7018681A3
:10062000978102C08FEF9FEF2C96E2E10C94E003DC
:10063000FC010590615070400110D8F780959095AD
:100640008E0F9F1F0895FC016150704001900110B2
:10065000D8F7809590958E0F9F1F08950F931F9345
:10066000CF93DF93FB01238121FD03C08FEF9FEF29
:1006700028C022FF16C04681578124813581421748
:10068000530744F4A081B1819D012F5F3F4F318317
:1006900020838C93268137812F5F3F4F37832683BA
:1006A00010C0EB01092F182F0084F185E02D09956A
:1006B000892BE1F68E819F8101969F838E83812F06
:1006C000902FDF91CF911F910F910895FA01AA27E2
:1006D000283051F1203181F1E8946F936E7F6E5F85
:1006E0007F4F8F4F9F4FAF4FB1E03ED0B4E03CD033
:1006F000670F781F891F9A1FA11D680F791F8A1F16
:10070000911DA11D6A0F711D811D911DA11D20D07C
:1007100009F468943F912AE0269F11243019305D36
:100720003193DEF6CF010895462F4770405D419327
:10073000B3E00FD0C9F7F6CF462F4F70405D4A3374
:1007400018F0495D31FD4052419302D0A9F7EACF3C
:10075000B4E0A6959795879577956795BA95C9F76B
:1007600000976105710508959B01AC010A2E06945E
:100770005795479537952795BA95C9F7620F731F17
:10078000841F951FA01D08952F923F924F925F9254
:100790006F927F928F929F92AF92BF92CF92DF9291
:1007A000EF92FF920F931F93CF93DF93CDB7DEB7F6
:1007B000CA1BDB0B0FB6F894DEBF0FBECDBF09948A
:1007C0002A88398848885F846E847D848C849B84E1
:1007D000AA84B984C884DF80EE80FD800C811B81EF
:1007E000AA81B981CE0FD11D0FB6F894DEBF0FBE1E
:0A07F000CDBFED010895F894FFCF8E
:1007FA00526563656976652025630A0048454C4C55
:02080A004F009D
:00000001FF
