:100000000C9434000C943E000C943E000C943E0082
:100010000C943E000C943E000C943E000C943E0068
:100020000C943E000C943E000C943E000C94400056
:100030000C943E000C943E000C943E000C943E0048
:100040000C943E000C943E000C943E000C943E0038
:100050000C943E000C943E000C943E000C943E0028
:100060000C943E000C943E0011241FBECFEFD8E04C
:10007000DEBFCDBF0E9452000C9468000C940000BB
:100080001F920F920FB60F9211248F939F9395B1E9
:1000900080E2892785B99F918F910F900FBE0F90B5
:1000A0001F901895259AF8941092800084E0809310
:1000B00081001092820084EF8093890083E2809314
:1000C000880080916F00826080936F007894FFCFEA
:0400D000F894FFCFD2
:00000001FF
