:100000000C9434000C9451000C9451000C94510049
:100010000C9451000C9451000C9451000C9451001C
:100020000C9451000C9451000C9451000C9451000C
:100030000C9451000C9451000C9451000C945100FC
:100040000C9451000C9451000C9451000C944301F9
:100050000C9451000C9451000C9451000C945100DC
:100060000C9451000C94510011241FBECFEFD8E026
:10007000DEBFCDBF11E0A0E0B1E0EAE0F3E002C0F6
:1000800005900D92A232B107D9F721E0A2E2B1E0CA
:1000900001C01D92AA38B207E1F70E9478010C94C2
:1000A00083010C940000FC011182108213821282E1
:1000B0000895FC014081518122813381C901841B53
:1000C000950B4217530714F08C599F4F0895FC016C
:1000D0004081518122813381CA01821B930B4217D7
:1000E000530714F48C599F4F08950F931F93CF9388
:1000F000DF931F92CDB7DEB78C0169830E94590050
:100100006981181619068CF4F801808191819C018F
:100110002F5F3F4FE80FF91F64832436310514F039
:1001200020E030E0F801318320830F90DF91CF9100
:100130001F910F910895CF93DF93EC010E94670008
:10014000892B91F08A819B819C012F5F3F4FFE019B
:10015000E80FF91F94812436310514F020E030E0D7
:100160003B832A83892F01C080E0DF91CF910895DE
:100170000F931F93CF93DF938C01EB010E945900E3
:10018000FE0101900020E9F73197EC1BFD0B8E1763
:100190009F07B8F088818823A1F0F8012081318180
:1001A000C9010196918380834991E20FF31F448333
:1001B0008436910514F080E090E0F801918380830B
:1001C000E9CFDF91CF911F910F9108950F931F9366
:1001D000CF93DF93FB012081222329F18B01EC01D6
:1001E0000E946700892BF9F0CE010E946700892BDD
:1001F000C1F08A819B819C012F5F3F4F3B832A8303
:10020000FE01E80FF91F8481F80181938F018A8133
:100210009B818436910514F080E090E09B838A8373
:10022000E3CF81E001C080E0DF91CF911F910F917A
:1002300008951092C50087E68093C40088E18093FA
:10024000C10086E08093C20082E291E00E945300E8
:10025000789408959091C00095FFFCCF8093C600DC
:1002600008958091C00087FFFCCF8091C60008955B
:10027000BC0182E291E00E94B800E1ECF0E08081F4
:100280008062808308951F920F920FB60F921124FF
:100290002F933F934F935F936F937F938F939F938E
:1002A000AF93BF93EF93FF9382E291E00E946700C8
:1002B000181619063CF482E291E00E949B0080939C
:1002C000C60005C08091C1008F7D8093C100FF9161
:1002D000EF91BF91AF919F918F917F916F915F91BE
:1002E0004F913F912F910F900FBE0F901F90189537
:1002F0000E94190184E191E00E94380180E091E0C0
:0A0300000E943801FFCFF894FFCFF0
:10030A003132333435363738393020544553542056
:10031A00320D0A0048656C6C6F20776F726C640D41
:02032A000A00C7
:00000001FF
