:100000000C9434000C9449000C9449000C94490061
:100010000C9449000C9449000C9449000C9449003C
:100020000C9449000C9449000C9449000C9449002C
:100030000C9449000C9449000C9449000C9449001C
:100040000C9449000C9449000C9449000C9449000C
:100050000C9449000C9449000C9449000C944900FC
:100060000C9449000C94490011241FBECFEFD8E036
:10007000DEBFCDBF11E0A0E0B1E0E0E2F1E002C000
:1000800005900D92A033B107D9F70E945E000C9441
:100090008E000C9400009091C00095FFFCCF8093DF
:1000A000C6000895CF93DF93EC018991882319F05E
:1000B0000E944B00FACFDF91CF9108951092C500B6
:1000C00087E68093C40088E18093C10086E0809336
:1000D000C20080E091E00E9452008AE00E944B0042
:1000E0008DE00E944B0086E091E00E9452008091DA
:1000F000C00087FFFCCFC091C6008C2F0E944B0030
:100100008AE00E944B008DE00E944B008AE191E062
:100110000E9452008C2F0E944B00DFCFF894FFCF3B
:1001200048656C6C6F00526563656976652063682D
:10013000617261637465723A20005472616E736D0E
:100140006974206368617261637465723A200000AB
:00000001FF
