:100000000C9434000C9446000C9446000C9446006A
:100010000C9446000C9446000C9446000C94460048
:100020000C9446000C9446000C9446000C94460038
:100030000C9446000C9446000C9446000C94460028
:100040000C9448000C9446000C9446000C94460016
:100050000C9446000C9446000C9446000C94460008
:100060000C9446000C94460011241FBECFEFD8E03C
:10007000DEBFCDBF21E0A0E0B1E001C01D92A23003
:10008000B207E1F70E9473000C947F000C9400000B
:100090001F920F920FB60F9211242F938F939F935D
:1000A000809100019091010101969093010180934C
:1000B000000186B58A5F86BD8091000190910101A3
:1000C000883E934041F495B182E0892785B910922A
:1000D0000101109200019F918F912F910F900FBEFF
:1000E0000F901F901895219AF89414BC15BC81E0CC
:1000F00080936E0085B5836085BD7894FFCFF894BA
:02010000FFCF2F
:00000001FF
